{
  "_format": "hh-sol-artifact-1",
  "contractName": "SoulBound",
  "sourceName": "contracts/Soulbound.sol",
  "abi": [
    {
      "inputs": [
        {
          "internalType": "address",
          "name": "creator",
          "type": "address"
        }
      ],
      "stateMutability": "nonpayable",
      "type": "constructor"
    },
    {
      "anonymous": false,
      "inputs": [
        {
          "indexed": true,
          "internalType": "address",
          "name": "account",
          "type": "address"
        },
        {
          "indexed": true,
          "internalType": "address",
          "name": "sender",
          "type": "address"
        }
      ],
      "name": "AdminApproved",
      "type": "event"
    },
    {
      "anonymous": false,
      "inputs": [
        {
          "indexed": true,
          "internalType": "address",
          "name": "account",
          "type": "address"
        },
        {
          "indexed": true,
          "internalType": "address",
          "name": "sender",
          "type": "address"
        }
      ],
      "name": "AdminRevoked",
      "type": "event"
    },
    {
      "anonymous": false,
      "inputs": [
        {
          "indexed": true,
          "internalType": "address",
          "name": "previousOwner",
          "type": "address"
        },
        {
          "indexed": true,
          "internalType": "address",
          "name": "newOwner",
          "type": "address"
        }
      ],
      "name": "OwnershipTransferred",
      "type": "event"
    },
    {
      "inputs": [
        {
          "internalType": "address",
          "name": "admin",
          "type": "address"
        }
      ],
      "name": "approveAdmin",
      "outputs": [],
      "stateMutability": "nonpayable",
      "type": "function"
    },
    {
      "inputs": [
        {
          "internalType": "address",
          "name": "from",
          "type": "address"
        },
        {
          "internalType": "address",
          "name": "to",
          "type": "address"
        },
        {
          "internalType": "uint256",
          "name": "tokenId",
          "type": "uint256"
        }
      ],
      "name": "approveTransfer",
      "outputs": [
        {
          "internalType": "bool",
          "name": "",
          "type": "bool"
        }
      ],
      "stateMutability": "nonpayable",
      "type": "function"
    },
    {
      "inputs": [
        {
          "internalType": "string",
          "name": "collectionName",
          "type": "string"
        }
      ],
      "name": "editionCountByCollectionName",
      "outputs": [
        {
          "internalType": "uint256",
          "name": "",
          "type": "uint256"
        }
      ],
      "stateMutability": "view",
      "type": "function"
    },
    {
      "inputs": [],
      "name": "extensionName",
      "outputs": [
        {
          "internalType": "string",
          "name": "",
          "type": "string"
        }
      ],
      "stateMutability": "view",
      "type": "function"
    },
    {
      "inputs": [],
      "name": "getAdmins",
      "outputs": [
        {
          "internalType": "address[]",
          "name": "admins",
          "type": "address[]"
        }
      ],
      "stateMutability": "view",
      "type": "function"
    },
    {
      "inputs": [],
      "name": "getCollections",
      "outputs": [
        {
          "internalType": "string[]",
          "name": "",
          "type": "string[]"
        }
      ],
      "stateMutability": "view",
      "type": "function"
    },
    {
      "inputs": [],
      "name": "getTokenIds",
      "outputs": [
        {
          "internalType": "uint256[]",
          "name": "",
          "type": "uint256[]"
        }
      ],
      "stateMutability": "view",
      "type": "function"
    },
    {
      "inputs": [],
      "name": "getTokenOwners",
      "outputs": [
        {
          "internalType": "address[]",
          "name": "",
          "type": "address[]"
        }
      ],
      "stateMutability": "view",
      "type": "function"
    },
    {
      "inputs": [
        {
          "internalType": "address",
          "name": "admin",
          "type": "address"
        }
      ],
      "name": "isAdmin",
      "outputs": [
        {
          "internalType": "bool",
          "name": "",
          "type": "bool"
        }
      ],
      "stateMutability": "view",
      "type": "function"
    },
    {
      "inputs": [
        {
          "internalType": "string",
          "name": "collectionName",
          "type": "string"
        },
        {
          "internalType": "address",
          "name": "sender",
          "type": "address"
        },
        {
          "internalType": "string",
          "name": "uri",
          "type": "string"
        }
      ],
      "name": "mint",
      "outputs": [],
      "stateMutability": "nonpayable",
      "type": "function"
    },
    {
      "inputs": [],
      "name": "owner",
      "outputs": [
        {
          "internalType": "address",
          "name": "",
          "type": "address"
        }
      ],
      "stateMutability": "view",
      "type": "function"
    },
    {
      "inputs": [],
      "name": "renounceOwnership",
      "outputs": [],
      "stateMutability": "nonpayable",
      "type": "function"
    },
    {
      "inputs": [
        {
          "internalType": "address",
          "name": "admin",
          "type": "address"
        }
      ],
      "name": "revokeAdmin",
      "outputs": [],
      "stateMutability": "nonpayable",
      "type": "function"
    },
    {
      "inputs": [
        {
          "internalType": "address",
          "name": "creator",
          "type": "address"
        },
        {
          "internalType": "bool",
          "name": "enabled",
          "type": "bool"
        }
      ],
      "name": "setApproveTransfer",
      "outputs": [],
      "stateMutability": "nonpayable",
      "type": "function"
    },
    {
      "inputs": [
        {
          "internalType": "string",
          "name": "baseURI",
          "type": "string"
        }
      ],
      "name": "setBaseURI",
      "outputs": [],
      "stateMutability": "nonpayable",
      "type": "function"
    },
    {
      "inputs": [
        {
          "internalType": "bytes4",
          "name": "interfaceId",
          "type": "bytes4"
        }
      ],
      "name": "supportsInterface",
      "outputs": [
        {
          "internalType": "bool",
          "name": "",
          "type": "bool"
        }
      ],
      "stateMutability": "view",
      "type": "function"
    },
    {
      "inputs": [
        {
          "internalType": "address",
          "name": "creator",
          "type": "address"
        },
        {
          "internalType": "uint256",
          "name": "tokenId",
          "type": "uint256"
        }
      ],
      "name": "tokenURI",
      "outputs": [
        {
          "internalType": "string",
          "name": "",
          "type": "string"
        }
      ],
      "stateMutability": "view",
      "type": "function"
    },
    {
      "inputs": [
        {
          "internalType": "address",
          "name": "newOwner",
          "type": "address"
        }
      ],
      "name": "transferOwnership",
      "outputs": [],
      "stateMutability": "nonpayable",
      "type": "function"
    }
  ],
  "bytecode": "0x60806040523480156200001157600080fd5b50604051620018473803806200184783398101604081905262000034916200018a565b6200003f3362000094565b600880546001600160a01b0319166001600160a01b0383161790556040805180820190915260098082526814dbdd5b109bdd5b9960ba1b60209092019182526200008c91600a91620000e4565b5050620001f9565b600080546001600160a01b038381166001600160a01b0319831681178455604051919092169283917f8be0079c531659141344cd1fd0a4f28419497f9722a3daafe3b4186f6b6457e09190a35050565b828054620000f290620001bc565b90600052602060002090601f01602090048101928262000116576000855562000161565b82601f106200013157805160ff191683800117855562000161565b8280016001018555821562000161579182015b828111156200016157825182559160200191906001019062000144565b506200016f92915062000173565b5090565b5b808211156200016f576000815560010162000174565b6000602082840312156200019d57600080fd5b81516001600160a01b0381168114620001b557600080fd5b9392505050565b600181811c90821680620001d157607f821691505b60208210811415620001f357634e487b7160e01b600052602260045260246000fd5b50919050565b61163e80620002096000396000f3fe608060405234801561001057600080fd5b50600436106100e65760003560e01c806301ffc9a7146100eb5780631b95a227146101135780631c86100f1461012857806324d7806c1461013d5780632d3456701461015057806331ae450b1461016357806346e635861461017857806355f804b31461018d57806367f718a9146101a05780636d73e669146101b5578063715018a6146101c857806382580805146101d05780638da5cb5b146101e3578063a9d4856a14610203578063ad6cf0a514610224578063d1b02ba714610237578063e9dc63751461023f578063f2fde38b14610252575b600080fd5b6100fe6100f9366004611125565b610265565b60405190151581526020015b60405180910390f35b6101266101213660046110bf565b6102ba565b005b610130610365565b60405161010a9190611463565b6100fe61014b366004611068565b6103f7565b61012661015e366004611068565b610426565b61016b610484565b60405161010a919061137c565b610180610532565b60405161010a91906113c9565b61012661019b36600461114f565b61060b565b6101a86106c0565b60405161010a919061142b565b6101266101c3366004611068565b610757565b6101266107af565b6100fe6101de366004611083565b6107c3565b6101eb610821565b6040516001600160a01b03909116815260200161010a565b61021661021136600461114f565b610830565b60405190815260200161010a565b61012661023236600461118b565b61085e565b61016b610a94565b61013061024d3660046110fb565b610af5565b610126610260366004611068565b610b82565b60006001600160e01b0319821663e9dc637560e01b148061029657506001600160e01b03198216634ce6d51160e11b145b806102a557506102a582610bf8565b806102b457506102b482610bf8565b92915050565b336102c3610821565b6001600160a01b031614806102de57506102de600133610c2d565b6103035760405162461bcd60e51b81526004016102fa906114a7565b60405180910390fd5b600854604051635606467d60e11b8152600160048201526001600160a01b039091169063ac0c8cfa90602401600060405180830381600087803b15801561034957600080fd5b505af115801561035d573d6000803e3d6000fd5b505050505050565b6060600a80546103749061155a565b80601f01602080910402602001604051908101604052809291908181526020018280546103a09061155a565b80156103ed5780601f106103c2576101008083540402835291602001916103ed565b820191906000526020600020905b8154815290600101906020018083116103d057829003601f168201915b5050505050905090565b6000816001600160a01b031661040b610821565b6001600160a01b031614806102b457506102b4600183610c2d565b61042e610c49565b610439600182610c2d565b156104815760405133906001600160a01b038316907f7c0c3c84c67c85fcac635147348bfe374c24a1a93d0366d1cfe9d8853cbf89d590600090a361047f600182610ca8565b505b50565b60606104906001610cbd565b6001600160401b038111156104a7576104a76115f2565b6040519080825280602002602001820160405280156104d0578160200160208202803683370190505b50905060005b6104e06001610cbd565b81101561052e576104f2600182610cc7565b828281518110610504576105046115dc565b6001600160a01b03909216602092830291909101909101528061052681611595565b9150506104d6565b5090565b60606005805480602002602001604051908101604052809291908181526020016000905b828210156106025783829060005260206000200180546105759061155a565b80601f01602080910402602001604051908101604052809291908181526020018280546105a19061155a565b80156105ee5780601f106105c3576101008083540402835291602001916105ee565b820191906000526020600020905b8154815290600101906020018083116105d157829003601f168201915b505050505081526020019060010190610556565b50505050905090565b33610614610821565b6001600160a01b0316148061062f575061062f600133610c2d565b61064b5760405162461bcd60e51b81526004016102fa906114a7565b6008546040516307cc269760e31b81526001600160a01b0390911690633e6134b89061067b908490600401611463565b600060405180830381600087803b15801561069557600080fd5b505af11580156106a9573d6000803e3d6000fd5b5050825161047f9250600991506020840190610eb7565b6060336106cb610821565b6001600160a01b031614806106e657506106e6600133610c2d565b6107025760405162461bcd60e51b81526004016102fa906114a7565b60048054806020026020016040519081016040528092919081815260200182805480156103ed57602002820191906000526020600020905b81548152602001906001019080831161073a575050505050905090565b61075f610c49565b61076a600182610c2d565b6104815760405133906001600160a01b038316907f7e1a1a08d52e4ba0e21554733d66165fd5151f99460116223d9e3a608eec5cb190600090a361047f600182610cd3565b6107b7610c49565b6107c16000610ce8565b565b6008546000906001600160a01b031633146107f05760405162461bcd60e51b81526004016102fa90611476565b6001600160a01b038416156108175760405162461bcd60e51b81526004016102fa90611476565b5060019392505050565b6000546001600160a01b031690565b6000600782604051610842919061130b565b9081526040519081900360200190205463ffffffff1692915050565b604080516000815260208101808352815190209161087e9187910161130b565b6040516020818303038152906040528051906020012014156108dc5760405162461bcd60e51b8152602060048201526017602482015276496e76616c696420436f6c6c656374696f6e204e616d6560481b60448201526064016102fa565b600854604051631fc5c3eb60e31b81526000916001600160a01b03169063fe2e1f58906109119087908790879060040161133c565b602060405180830381600087803b15801561092b57600080fd5b505af115801561093f573d6000803e3d6000fd5b505050506040513d601f19601f82011682018060405250810190610963919061122c565b6004805460018082019092557f8a35acfbc15ff81a39ae7d344fd709f28e8600b4aa8c65c6b64bfe7fe36bd19b01829055600380548083019091557fc2575a0e9e593c00f959f8c92f12db2869c3395a3b0502d05e2516446f71f85b0180546001600160a01b0319166001600160a01b0388161790556005805491820181556000528651919250610a1d917f036b6384b5eca791c62761152d0c79bb0604c104a5fb6f4eb0703f3154bb3db0909101906020880190610eb7565b506000818152600660205260409020610a37908484610f37565b506001600786604051610a4a919061130b565b9081526040519081900360200190208054600090610a6f90849063ffffffff166114eb565b92506101000a81548163ffffffff021916908363ffffffff1602179055505050505050565b606060038054806020026020016040519081016040528092919081815260200182805480156103ed57602002820191906000526020600020905b81546001600160a01b03168152600190910190602001808311610ace575050505050905090565b6008546060906001600160a01b03848116911614610b455760405162461bcd60e51b815260206004820152600d60248201526c24b73b30b634b2103a37b5b2b760991b60448201526064016102fa565b600960066000848152602001908152602001600020604051602001610b6b929190611327565b604051602081830303815290604052905092915050565b610b8a610c49565b6001600160a01b038116610bef5760405162461bcd60e51b815260206004820152602660248201527f4f776e61626c653a206e6577206f776e657220697320746865207a65726f206160448201526564647265737360d01b60648201526084016102fa565b61048181610ce8565b60006001600160e01b03198216632a9f3abf60e11b14806102b457506301ffc9a760e01b6001600160e01b03198316146102b4565b6000610c42836001600160a01b038416610d38565b9392505050565b33610c52610821565b6001600160a01b0316146107c15760405162461bcd60e51b815260206004820181905260248201527f4f776e61626c653a2063616c6c6572206973206e6f7420746865206f776e657260448201526064016102fa565b6000610c42836001600160a01b038416610d50565b60006102b4825490565b6000610c428383610e43565b6000610c42836001600160a01b038416610e6d565b600080546001600160a01b038381166001600160a01b0319831681178455604051919092169283917f8be0079c531659141344cd1fd0a4f28419497f9722a3daafe3b4186f6b6457e09190a35050565b60009081526001919091016020526040902054151590565b60008181526001830160205260408120548015610e39576000610d74600183611513565b8554909150600090610d8890600190611513565b9050818114610ded576000866000018281548110610da857610da86115dc565b9060005260206000200154905080876000018481548110610dcb57610dcb6115dc565b6000918252602080832090910192909255918252600188019052604090208390555b8554869080610dfe57610dfe6115c6565b6001900381819060005260206000200160009055905585600101600086815260200190815260200160002060009055600193505050506102b4565b60009150506102b4565b6000826000018281548110610e5a57610e5a6115dc565b9060005260206000200154905092915050565b6000610e798383610d38565b610eaf575081546001818101845560008481526020808220909301849055845484825282860190935260409020919091556102b4565b5060006102b4565b828054610ec39061155a565b90600052602060002090601f016020900481019282610ee55760008555610f2b565b82601f10610efe57805160ff1916838001178555610f2b565b82800160010185558215610f2b579182015b82811115610f2b578251825591602001919060010190610f10565b5061052e929150610fab565b828054610f439061155a565b90600052602060002090601f016020900481019282610f655760008555610f2b565b82601f10610f7e5782800160ff19823516178555610f2b565b82800160010185558215610f2b579182015b82811115610f2b578235825591602001919060010190610f90565b5b8082111561052e5760008155600101610fac565b80356001600160a01b0381168114610fd757600080fd5b919050565b600082601f830112610fed57600080fd5b81356001600160401b0380821115611007576110076115f2565b604051601f8301601f19908116603f0116810190828211818310171561102f5761102f6115f2565b8160405283815286602085880101111561104857600080fd5b836020870160208301376000602085830101528094505050505092915050565b60006020828403121561107a57600080fd5b610c4282610fc0565b60008060006060848603121561109857600080fd5b6110a184610fc0565b92506110af60208501610fc0565b9150604084013590509250925092565b600080604083850312156110d257600080fd5b6110db83610fc0565b9150602083013580151581146110f057600080fd5b809150509250929050565b6000806040838503121561110e57600080fd5b61111783610fc0565b946020939093013593505050565b60006020828403121561113757600080fd5b81356001600160e01b031981168114610c4257600080fd5b60006020828403121561116157600080fd5b81356001600160401b0381111561117757600080fd5b61118384828501610fdc565b949350505050565b600080600080606085870312156111a157600080fd5b84356001600160401b03808211156111b857600080fd5b6111c488838901610fdc565b95506111d260208801610fc0565b945060408701359150808211156111e857600080fd5b818701915087601f8301126111fc57600080fd5b81358181111561120b57600080fd5b88602082850101111561121d57600080fd5b95989497505060200194505050565b60006020828403121561123e57600080fd5b5051919050565b6000815180845261125d81602086016020860161152a565b601f01601f19169290920160200192915050565b8054600090600181811c908083168061128b57607f831692505b60208084108214156112ad57634e487b7160e01b600052602260045260246000fd5b8180156112c157600181146112d2576112ff565b60ff198616895284890196506112ff565b60008881526020902060005b868110156112f75781548b8201529085019083016112de565b505084890196505b50505050505092915050565b6000825161131d81846020870161152a565b9190910192915050565b60006111836113368386611271565b84611271565b6001600160a01b03841681526040602082018190528101829052818360608301376000818301606090810191909152601f909201601f1916010192915050565b6020808252825182820181905260009190848201906040850190845b818110156113bd5783516001600160a01b031683529284019291840191600101611398565b50909695505050505050565b6000602080830181845280855180835260408601915060408160051b870101925083870160005b8281101561141e57603f1988860301845261140c858351611245565b945092850192908501906001016113f0565b5092979650505050505050565b6020808252825182820181905260009190848201906040850190845b818110156113bd57835183529284019291840191600101611447565b602081526000610c426020830184611245565b602080825260179082015276151a1a5cc81d1bdad95b881a5cc81cdbdd5b189bdd5b99604a1b604082015260600190565b60208082526024908201527f41646d696e436f6e74726f6c3a204d757374206265206f776e6572206f7220616040820152633236b4b760e11b606082015260800190565b600063ffffffff80831681851680830382111561150a5761150a6115b0565b01949350505050565b600082821015611525576115256115b0565b500390565b60005b8381101561154557818101518382015260200161152d565b83811115611554576000848401525b50505050565b600181811c9082168061156e57607f821691505b6020821081141561158f57634e487b7160e01b600052602260045260246000fd5b50919050565b60006000198214156115a9576115a96115b0565b5060010190565b634e487b7160e01b600052601160045260246000fd5b634e487b7160e01b600052603160045260246000fd5b634e487b7160e01b600052603260045260246000fd5b634e487b7160e01b600052604160045260246000fdfea26469706673582212205471dffd29281cdc86fc1e2ea867ef5a2125f72500c0cc6abf6ff4b4c7c7e7c064736f6c63430008070033",
  "linkReferences": {},
  "deployedLinkReferences": {}
}